{
  "_format": "hh-sol-artifact-1",
  "contractName": "Box",
  "sourceName": "contracts/Box.sol",
  "abi": [
    {
      "anonymous": false,
      "inputs": [
        {
          "indexed": true,
          "internalType": "uint256",
          "name": "previousNumber",
          "type": "uint256"
        },
        {
          "indexed": true,
          "internalType": "uint256",
          "name": "newNumber",
          "type": "uint256"
        }
      ],
      "name": "ChangeNumber",
      "type": "event"
    },
    {
      "anonymous": false,
      "inputs": [
        {
          "indexed": true,
          "internalType": "address",
          "name": "previousOwner",
          "type": "address"
        },
        {
          "indexed": true,
          "internalType": "address",
          "name": "newOwner",
          "type": "address"
        }
      ],
      "name": "OwnershipTransferred",
      "type": "event"
    },
    {
      "inputs": [
        {
          "internalType": "uint256",
          "name": "newNumber",
          "type": "uint256"
        }
      ],
      "name": "changeNumber",
      "outputs": [],
      "stateMutability": "nonpayable",
      "type": "function"
    },
    {
      "inputs": [],
      "name": "getNumber",
      "outputs": [
        {
          "internalType": "uint256",
          "name": "",
          "type": "uint256"
        }
      ],
      "stateMutability": "view",
      "type": "function"
    },
    {
      "inputs": [],
      "name": "number",
      "outputs": [
        {
          "internalType": "uint256",
          "name": "",
          "type": "uint256"
        }
      ],
      "stateMutability": "view",
      "type": "function"
    },
    {
      "inputs": [],
      "name": "owner",
      "outputs": [
        {
          "internalType": "address",
          "name": "",
          "type": "address"
        }
      ],
      "stateMutability": "view",
      "type": "function"
    },
    {
      "inputs": [],
      "name": "renounceOwnership",
      "outputs": [],
      "stateMutability": "nonpayable",
      "type": "function"
    },
    {
      "inputs": [
        {
          "internalType": "address",
          "name": "newOwner",
          "type": "address"
        }
      ],
      "name": "transferOwnership",
      "outputs": [],
      "stateMutability": "nonpayable",
      "type": "function"
    }
  ],
  "bytecode": "0x608060405234801561001057600080fd5b5061002d61002261003260201b60201c565b61003a60201b60201c565b6100fe565b600033905090565b60008060009054906101000a900473ffffffffffffffffffffffffffffffffffffffff169050816000806101000a81548173ffffffffffffffffffffffffffffffffffffffff021916908373ffffffffffffffffffffffffffffffffffffffff1602179055508173ffffffffffffffffffffffffffffffffffffffff168173ffffffffffffffffffffffffffffffffffffffff167f8be0079c531659141344cd1fd0a4f28419497f9722a3daafe3b4186f6b6457e060405160405180910390a35050565b6105f48061010d6000396000f3fe608060405234801561001057600080fd5b50600436106100625760003560e01c806307391dd614610067578063715018a6146100835780638381f58a1461008d5780638da5cb5b146100ab578063f2c9ecd8146100c9578063f2fde38b146100e7575b600080fd5b610081600480360381019061007c91906103a3565b610103565b005b61008b61014d565b005b610095610161565b6040516100a291906103df565b60405180910390f35b6100b3610167565b6040516100c0919061043b565b60405180910390f35b6100d1610190565b6040516100de91906103df565b60405180910390f35b61010160048036038101906100fc9190610482565b61019a565b005b61010b61021e565b6000600154905081600181905550600154817f2a2071a9161b7daddc55e364a9f905a353e24788365a2aed84e35ea6ea45290c60405160405180910390a35050565b61015561021e565b61015f600061029c565b565b60015481565b60008060009054906101000a900473ffffffffffffffffffffffffffffffffffffffff16905090565b6000600154905090565b6101a261021e565b600073ffffffffffffffffffffffffffffffffffffffff168173ffffffffffffffffffffffffffffffffffffffff161415610212576040517f08c379a000000000000000000000000000000000000000000000000000000000815260040161020990610532565b60405180910390fd5b61021b8161029c565b50565b610226610360565b73ffffffffffffffffffffffffffffffffffffffff16610244610167565b73ffffffffffffffffffffffffffffffffffffffff161461029a576040517f08c379a00000000000000000000000000000000000000000000000000000000081526004016102919061059e565b60405180910390fd5b565b60008060009054906101000a900473ffffffffffffffffffffffffffffffffffffffff169050816000806101000a81548173ffffffffffffffffffffffffffffffffffffffff021916908373ffffffffffffffffffffffffffffffffffffffff1602179055508173ffffffffffffffffffffffffffffffffffffffff168173ffffffffffffffffffffffffffffffffffffffff167f8be0079c531659141344cd1fd0a4f28419497f9722a3daafe3b4186f6b6457e060405160405180910390a35050565b600033905090565b600080fd5b6000819050919050565b6103808161036d565b811461038b57600080fd5b50565b60008135905061039d81610377565b92915050565b6000602082840312156103b9576103b8610368565b5b60006103c78482850161038e565b91505092915050565b6103d98161036d565b82525050565b60006020820190506103f460008301846103d0565b92915050565b600073ffffffffffffffffffffffffffffffffffffffff82169050919050565b6000610425826103fa565b9050919050565b6104358161041a565b82525050565b6000602082019050610450600083018461042c565b92915050565b61045f8161041a565b811461046a57600080fd5b50565b60008135905061047c81610456565b92915050565b60006020828403121561049857610497610368565b5b60006104a68482850161046d565b91505092915050565b600082825260208201905092915050565b7f4f776e61626c653a206e6577206f776e657220697320746865207a65726f206160008201527f6464726573730000000000000000000000000000000000000000000000000000602082015250565b600061051c6026836104af565b9150610527826104c0565b604082019050919050565b6000602082019050818103600083015261054b8161050f565b9050919050565b7f4f776e61626c653a2063616c6c6572206973206e6f7420746865206f776e6572600082015250565b60006105886020836104af565b915061059382610552565b602082019050919050565b600060208201905081810360008301526105b78161057b565b905091905056fea2646970667358221220a8091c2a09a2ca0ff2d222e16913384b48ac197e91f7e69d06ce6e899f76a41864736f6c63430008090033",
  "linkReferences": {},
  "deployedLinkReferences": {}
}